:100000000C9434000C943E000C943E000C943E0082
:100010000C943E000C943E000C943E000C943E0068
:100020000C943E000C943E000C943E000C943E0058
:100030000C943E000C943E000C943E000C943E0048
:100040000C943E000C943E000C943E000C943E0038
:100050000C943E000C943E000C943E000C943E0028
:100060000C943E000C943E0011241FBECFEFD8E04C
:10007000DEBFCDBF0E9440000C945C000C940000D9
:1000800083E980937A0080E480937C0080917A00F9
:10009000806480937A0080917A008F7E80937A00CA
:1000A0008823C9F380917A00806180937A008091DF
:0C00B000780080917900EACFF894FFCF2F
:00000001FF
