:100000000C9434000C9446000C9446000C9446006A
:100010000C9446000C9446000C9446000C94460048
:100020000C9446000C9446000C9446000C94460038
:100030000C9446000C9448000C9446000C94460026
:100040000C9446000C9446000C9446000C94460018
:100050000C9446000C9446000C9446000C94460008
:100060000C9446000C94460011241FBECFEFD8E03C
:10007000DEBFCDBF21E0A0E0B1E001C01D92A23003
:10008000B207E1F70E9461000C9463000C94000039
:100090001F920F920FB60F9211240F900FBE0F9068
:1000A0001F901895F999FECF92BD81BD60BDFA9A57
:1000B000F99A0895F999FECF92BD81BDF89A80B55D
:0A00C00008957894FFCFF894FFCF65
:00000001FF
